{
  "contractName": "CoShoe",
  "abi": [
    {
      "inputs": [],
      "payable": false,
      "stateMutability": "nonpayable",
      "type": "constructor"
    },
    {
      "constant": true,
      "inputs": [],
      "name": "cotoken",
      "outputs": [
        {
          "internalType": "contract CoToken",
          "name": "",
          "type": "address"
        }
      ],
      "payable": false,
      "stateMutability": "view",
      "type": "function"
    },
    {
      "constant": true,
      "inputs": [],
      "name": "minter",
      "outputs": [
        {
          "internalType": "address payable",
          "name": "",
          "type": "address"
        }
      ],
      "payable": false,
      "stateMutability": "view",
      "type": "function"
    },
    {
      "constant": true,
      "inputs": [
        {
          "internalType": "uint256",
          "name": "",
          "type": "uint256"
        }
      ],
      "name": "shoes",
      "outputs": [
        {
          "internalType": "address payable",
          "name": "owner",
          "type": "address"
        },
        {
          "internalType": "bool",
          "name": "sold",
          "type": "bool"
        },
        {
          "internalType": "string",
          "name": "name",
          "type": "string"
        },
        {
          "internalType": "string",
          "name": "image",
          "type": "string"
        }
      ],
      "payable": false,
      "stateMutability": "view",
      "type": "function"
    },
    {
      "constant": true,
      "inputs": [],
      "name": "shoesSold",
      "outputs": [
        {
          "internalType": "uint256",
          "name": "",
          "type": "uint256"
        }
      ],
      "payable": false,
      "stateMutability": "view",
      "type": "function"
    },
    {
      "constant": false,
      "inputs": [
        {
          "internalType": "string",
          "name": "_name",
          "type": "string"
        },
        {
          "internalType": "string",
          "name": "_image",
          "type": "string"
        },
        {
          "internalType": "address",
          "name": "addr",
          "type": "address"
        }
      ],
      "name": "buyShoe",
      "outputs": [],
      "payable": false,
      "stateMutability": "nonpayable",
      "type": "function"
    },
    {
      "constant": true,
      "inputs": [],
      "name": "checkPurchases",
      "outputs": [
        {
          "internalType": "bool[]",
          "name": "",
          "type": "bool[]"
        }
      ],
      "payable": false,
      "stateMutability": "view",
      "type": "function"
    }
  ],
  "bytecode": "0x60806040526000805534801561001457600080fd5b5061001d6101d1565b33600360006101000a81548173ffffffffffffffffffffffffffffffffffffffff021916908373ffffffffffffffffffffffffffffffffffffffff160217905550600360009054906101000a900473ffffffffffffffffffffffffffffffffffffffff16816000019073ffffffffffffffffffffffffffffffffffffffff16908173ffffffffffffffffffffffffffffffffffffffff168152505060405180602001604052806000815250816040018190525060405180602001604052806000815250816060018190525060008160200190151590811515815250506001819080600181540180825580915050906001820390600052602060002090600302016000909192909190915060008201518160000160006101000a81548173ffffffffffffffffffffffffffffffffffffffff021916908373ffffffffffffffffffffffffffffffffffffffff16021790555060208201518160000160146101000a81548160ff02191690831515021790555060408201518160010190805190602001906101aa929190610211565b5060608201518160020190805190602001906101c7929190610211565b50505050506102b6565b6040518060800160405280600073ffffffffffffffffffffffffffffffffffffffff16815260200160001515815260200160608152602001606081525090565b828054600181600116156101000203166002900490600052602060002090601f016020900481019282601f1061025257805160ff1916838001178555610280565b82800160010185558215610280579182015b8281111561027f578251825591602001919060010190610264565b5b50905061028d9190610291565b5090565b6102b391905b808211156102af576000816000905550600101610297565b5090565b90565b610c6d806102c56000396000f3fe608060405234801561001057600080fd5b50600436106100625760003560e01c80630754617214610067578063558a2b8b146100b1578063607473cf14610110578063afcaae3514610261578063bb4f8275146103d3578063c141e8eb1461041d575b600080fd5b61006f61043b565b604051808273ffffffffffffffffffffffffffffffffffffffff1673ffffffffffffffffffffffffffffffffffffffff16815260200191505060405180910390f35b6100b9610461565b6040518080602001828103825283818151815260200191508051906020019060200280838360005b838110156100fc5780820151818401526020810190506100e1565b505050509050019250505060405180910390f35b61013c6004803603602081101561012657600080fd5b8101908080359060200190929190505050610579565b604051808573ffffffffffffffffffffffffffffffffffffffff1673ffffffffffffffffffffffffffffffffffffffff168152602001841515151581526020018060200180602001838103835285818151815260200191508051906020019080838360005b838110156101bc5780820151818401526020810190506101a1565b50505050905090810190601f1680156101e95780820380516001836020036101000a031916815260200191505b50838103825284818151815260200191508051906020019080838360005b83811015610222578082015181840152602081019050610207565b50505050905090810190601f16801561024f5780820380516001836020036101000a031916815260200191505b50965050505050505060405180910390f35b6103d16004803603606081101561027757600080fd5b810190808035906020019064010000000081111561029457600080fd5b8201836020820111156102a657600080fd5b803590602001918460018302840111640100000000831117156102c857600080fd5b91908080601f016020809104026020016040519081016040528093929190818152602001838380828437600081840152601f19601f8201169050808301925050505050505091929192908035906020019064010000000081111561032b57600080fd5b82018360208201111561033d57600080fd5b8035906020019184600183028401116401000000008311171561035f57600080fd5b91908080601f016020809104026020016040519081016040528093929190818152602001838380828437600081840152601f19601f820116905080830192505050505050509192919290803573ffffffffffffffffffffffffffffffffffffffff169060200190929190505050610713565b005b6103db610b67565b604051808273ffffffffffffffffffffffffffffffffffffffff1673ffffffffffffffffffffffffffffffffffffffff16815260200191505060405180910390f35b610425610b8d565b6040518082815260200191505060405180910390f35b600360009054906101000a900473ffffffffffffffffffffffffffffffffffffffff1681565b60608060646040519080825280602002602001820160405280156104945781602001602082028038833980820191505090505b50905060008090505b6000548111610571576000600182815481106104b557fe5b906000526020600020906003020190503373ffffffffffffffffffffffffffffffffffffffff168160000160009054906101000a900473ffffffffffffffffffffffffffffffffffffffff1673ffffffffffffffffffffffffffffffffffffffff16141561054257600183838151811061052b57fe5b602002602001019015159081151581525050610563565b600083838151811061055057fe5b6020026020010190151590811515815250505b50808060010191505061049d565b508091505090565b6001818154811061058657fe5b90600052602060002090600302016000915090508060000160009054906101000a900473ffffffffffffffffffffffffffffffffffffffff16908060000160149054906101000a900460ff1690806001018054600181600116156101000203166002900480601f01602080910402602001604051908101604052809291908181526020018280546001816001161561010002031660029004801561066b5780601f106106405761010080835404028352916020019161066b565b820191906000526020600020905b81548152906001019060200180831161064e57829003601f168201915b505050505090806002018054600181600116156101000203166002900480601f0160208091040260200160405190810160405280929190818152602001828054600181600116156101000203166002900480156107095780601f106106de57610100808354040283529160200191610709565b820191906000526020600020905b8154815290600101906020018083116106ec57829003601f168201915b5050505050905084565b80600260006101000a81548173ffffffffffffffffffffffffffffffffffffffff021916908373ffffffffffffffffffffffffffffffffffffffff1602179055506000805411806107675750606460005411155b6107d9576040517f08c379a000000000000000000000000000000000000000000000000000000000815260040180806020018281038252601b8152602001807f54686520617265206e6f2073686f657320617661696c61626c652e000000000081525060200191505060405180910390fd5b6000600260009054906101000a900473ffffffffffffffffffffffffffffffffffffffff1673ffffffffffffffffffffffffffffffffffffffff166327e235e3336040518263ffffffff1660e01b8152600401808273ffffffffffffffffffffffffffffffffffffffff1673ffffffffffffffffffffffffffffffffffffffff16815260200191505060206040518083038186803b15801561087a57600080fd5b505afa15801561088e573d6000803e3d6000fd5b505050506040513d60208110156108a457600080fd5b810190808051906020019092919050505011610928576040517f08c379a000000000000000000000000000000000000000000000000000000000815260040180806020018281038252601c8152602001807f4e6f20746f6b656e7320617265206f776e65642062792062757965720000000081525060200191505060405180910390fd5b600260009054906101000a900473ffffffffffffffffffffffffffffffffffffffff1673ffffffffffffffffffffffffffffffffffffffff166323b872dd33600360009054906101000a900473ffffffffffffffffffffffffffffffffffffffff1660016040518463ffffffff1660e01b8152600401808473ffffffffffffffffffffffffffffffffffffffff1673ffffffffffffffffffffffffffffffffffffffff1681526020018373ffffffffffffffffffffffffffffffffffffffff1673ffffffffffffffffffffffffffffffffffffffff1681526020018281526020019350505050600060405180830381600087803b158015610a2857600080fd5b505af1158015610a3c573d6000803e3d6000fd5b50505050600060019050600160405180608001604052803373ffffffffffffffffffffffffffffffffffffffff1681526020018315158152602001868152602001858152509080600181540180825580915050906001820390600052602060002090600302016000909192909190915060008201518160000160006101000a81548173ffffffffffffffffffffffffffffffffffffffff021916908373ffffffffffffffffffffffffffffffffffffffff16021790555060208201518160000160146101000a81548160ff0219169083151502179055506040820151816001019080519060200190610b2f929190610b93565b506060820151816002019080519060200190610b4c929190610b93565b50505050600080815480929190600101919050555050505050565b600260009054906101000a900473ffffffffffffffffffffffffffffffffffffffff1681565b60005481565b828054600181600116156101000203166002900490600052602060002090601f016020900481019282601f10610bd457805160ff1916838001178555610c02565b82800160010185558215610c02579182015b82811115610c01578251825591602001919060010190610be6565b5b509050610c0f9190610c13565b5090565b610c3591905b80821115610c31576000816000905550600101610c19565b5090565b9056fea265627a7a72315820819cde56d1d153a74f637b1a4cd48f36c74935b0322d1fe273a684425b48632564736f6c63430005100032",
  "source": "pragma solidity ^0.5.0;\n\n// need contract interface with CoToken\nimport \"./CoToken.sol\";\n\ncontract CoShoe {\n    \n    \n    struct Shoe {\n        address payable owner;\n        bool sold;\n        string name;//url to image\n        string image;\n    }\n    // state variable of 0.5 ether and convert to wei\n    //uint public price = 0.5 * 1e18 wei ;\n    //  state variable shoessold which keeps number of shoes already sold\n    // initialise as zero\n    uint public shoesSold = 0;\n\n    // public array holding instance of shoes\n    Shoe[] public shoes;\n    CoToken public cotoken;\n\n    //  map containing balances\n    //mapping (address => uint) public balances;\n\n    address payable public minter;\n\n    // constructor to mint 100 coshoe tokens\n    constructor () public {\n        // set address of deployer to be owner\n        //  instance within shoe array\n        Shoe memory shoeArray;\n        minter  = msg.sender;\n        shoeArray.owner = minter;\n        shoeArray.name = \"\";\n        shoeArray.image = \"\";\n        shoeArray.sold = false;  \n\n        // use mint function to mint 100  tokens to mintere\n        \n        \n        // push instances to Shoe array\n       // balances[minter] = 100;\n        shoes.push(shoeArray);\n    \n    }\n\n    \n    // function called buyhsoe\n    function buyShoe(string memory _name, string memory _image, address addr) public {\n    cotoken = CoToken(addr);\n    // find pair of shoes that have not been sold yet\n    \n    require(shoesSold >0  || shoesSold <=100, \"The are no shoes available.\");\n\n    // checks value of attahced function is same as price\n    \n    // need to call balanceOf function from mint function to check if address has money\n    require(cotoken.balances(msg.sender) > 0, \"No tokens are owned by buyer\");\n    cotoken.transferFrom(msg.sender, minter, 1);\n    \n    bool newSold = true;\n    // push to shoes array\n    shoes.push(Shoe(msg.sender, newSold, _name ,_image));\n    \n    // upgrade value of shoes sold\n    shoesSold++;\n    \n\n    }\n    \n    // function to check purchases\n    function checkPurchases() public view returns(bool[] memory) {\n        //set empty boolean array of length of number of shoes sold which will check\n        // will put true in index of array \n        bool[] memory _soldarray = new bool[](100);\n\n        for (uint i = 0; i <= shoesSold; i++) {\n            Shoe storage shoe = shoes[i];\n            if( shoe.owner == msg.sender ) {\n                _soldarray[i]= true ;\n            }\n            else {\n                _soldarray[i] = false;\n            }\n        }\n        return _soldarray;\n        \n    }\n\n    \n\n\n}\n",
  "sourcePath": "/Users/zanelekubheka/Fintech/coInteract/contracts/CoShoe.sol",
  "compiler": {
    "name": "solc",
    "version": "0.5.16+commit.9c3226ce.Emscripten.clang"
  },
  "schemaVersion": "3.0.23",
  "updatedAt": "2020-03-07T10:18:14.464Z",
  "devdoc": {
    "methods": {}
  },
  "userdoc": {
    "methods": {}
  }
}