{
  "contractName": "CoToken",
  "abi": [
    {
      "inputs": [],
      "payable": false,
      "stateMutability": "nonpayable",
      "type": "constructor"
    },
    {
      "anonymous": false,
      "inputs": [
        {
          "indexed": true,
          "internalType": "address",
          "name": "previousOwner",
          "type": "address"
        },
        {
          "indexed": true,
          "internalType": "address",
          "name": "newOwner",
          "type": "address"
        }
      ],
      "name": "OwnershipTransferred",
      "type": "event"
    },
    {
      "constant": true,
      "inputs": [],
      "name": "TotalSupply",
      "outputs": [
        {
          "internalType": "uint256",
          "name": "",
          "type": "uint256"
        }
      ],
      "payable": false,
      "stateMutability": "view",
      "type": "function"
    },
    {
      "constant": true,
      "inputs": [
        {
          "internalType": "address",
          "name": "",
          "type": "address"
        }
      ],
      "name": "balances",
      "outputs": [
        {
          "internalType": "uint256",
          "name": "",
          "type": "uint256"
        }
      ],
      "payable": false,
      "stateMutability": "view",
      "type": "function"
    },
    {
      "constant": true,
      "inputs": [],
      "name": "isOwner",
      "outputs": [
        {
          "internalType": "bool",
          "name": "",
          "type": "bool"
        }
      ],
      "payable": false,
      "stateMutability": "view",
      "type": "function"
    },
    {
      "constant": true,
      "inputs": [],
      "name": "owner",
      "outputs": [
        {
          "internalType": "address",
          "name": "",
          "type": "address"
        }
      ],
      "payable": false,
      "stateMutability": "view",
      "type": "function"
    },
    {
      "constant": false,
      "inputs": [],
      "name": "renounceOwnership",
      "outputs": [],
      "payable": false,
      "stateMutability": "nonpayable",
      "type": "function"
    },
    {
      "constant": false,
      "inputs": [
        {
          "internalType": "address",
          "name": "newOwner",
          "type": "address"
        }
      ],
      "name": "transferOwnership",
      "outputs": [],
      "payable": false,
      "stateMutability": "nonpayable",
      "type": "function"
    },
    {
      "constant": false,
      "inputs": [
        {
          "internalType": "address",
          "name": "_from",
          "type": "address"
        },
        {
          "internalType": "address",
          "name": "_to",
          "type": "address"
        },
        {
          "internalType": "uint256",
          "name": "numberOfTokens",
          "type": "uint256"
        }
      ],
      "name": "transferFrom",
      "outputs": [],
      "payable": false,
      "stateMutability": "nonpayable",
      "type": "function"
    },
    {
      "constant": false,
      "inputs": [
        {
          "internalType": "address",
          "name": "_to",
          "type": "address"
        },
        {
          "internalType": "uint256",
          "name": "numberOfTokens",
          "type": "uint256"
        }
      ],
      "name": "mint",
      "outputs": [],
      "payable": true,
      "stateMutability": "payable",
      "type": "function"
    },
    {
      "constant": false,
      "inputs": [
        {
          "internalType": "address",
          "name": "_from",
          "type": "address"
        },
        {
          "internalType": "uint256",
          "name": "_nCo",
          "type": "uint256"
        }
      ],
      "name": "burn",
      "outputs": [],
      "payable": false,
      "stateMutability": "nonpayable",
      "type": "function"
    },
    {
      "constant": false,
      "inputs": [],
      "name": "destroy",
      "outputs": [],
      "payable": false,
      "stateMutability": "nonpayable",
      "type": "function"
    }
  ],
  "bytecode": "0x6080604052606460015534801561001557600080fd5b50600061002661010f60201b60201c565b9050806000806101000a81548173ffffffffffffffffffffffffffffffffffffffff021916908373ffffffffffffffffffffffffffffffffffffffff1602179055508073ffffffffffffffffffffffffffffffffffffffff16600073ffffffffffffffffffffffffffffffffffffffff167f8be0079c531659141344cd1fd0a4f28419497f9722a3daafe3b4186f6b6457e060405160405180910390a350600154600260003373ffffffffffffffffffffffffffffffffffffffff1673ffffffffffffffffffffffffffffffffffffffff16815260200190815260200160002081905550610117565b600033905090565b610adf806101266000396000f3fe6080604052600436106100915760003560e01c80638da5cb5b116100595780638da5cb5b146101f25780638f32d59b146102495780639dc29fac14610278578063a44b47f7146102d3578063f2fde38b146102fe57610091565b806323b872dd1461009657806327e235e31461011157806340c10f1914610176578063715018a6146101c457806383197ef0146101db575b600080fd5b3480156100a257600080fd5b5061010f600480360360608110156100b957600080fd5b81019080803573ffffffffffffffffffffffffffffffffffffffff169060200190929190803573ffffffffffffffffffffffffffffffffffffffff1690602001909291908035906020019092919050505061034f565b005b34801561011d57600080fd5b506101606004803603602081101561013457600080fd5b81019080803573ffffffffffffffffffffffffffffffffffffffff1690602001909291905050506103fe565b6040518082815260200191505060405180910390f35b6101c26004803603604081101561018c57600080fd5b81019080803573ffffffffffffffffffffffffffffffffffffffff16906020019092919080359060200190929190505050610416565b005b3480156101d057600080fd5b506101d96104a9565b005b3480156101e757600080fd5b506101f06105e2565b005b3480156101fe57600080fd5b5061020761070d565b604051808273ffffffffffffffffffffffffffffffffffffffff1673ffffffffffffffffffffffffffffffffffffffff16815260200191505060405180910390f35b34801561025557600080fd5b5061025e610736565b604051808215151515815260200191505060405180910390f35b34801561028457600080fd5b506102d16004803603604081101561029b57600080fd5b81019080803573ffffffffffffffffffffffffffffffffffffffff16906020019092919080359060200190929190505050610794565b005b3480156102df57600080fd5b506102e8610869565b6040518082815260200191505060405180910390f35b34801561030a57600080fd5b5061034d6004803603602081101561032157600080fd5b81019080803573ffffffffffffffffffffffffffffffffffffffff16906020019092919050505061086f565b005b80600260008573ffffffffffffffffffffffffffffffffffffffff1673ffffffffffffffffffffffffffffffffffffffff1681526020019081526020016000206000828254039250508190555080600260008473ffffffffffffffffffffffffffffffffffffffff1673ffffffffffffffffffffffffffffffffffffffff1681526020019081526020016000206000828254019250508190555080600160008282540392505081905550505050565b60026020528060005260406000206000915090505481565b61041f816108f5565b3414610493576040517f08c379a000000000000000000000000000000000000000000000000000000000815260040180806020018281038252601d8152602001807f4e6f7420656e6f75676820746f6b656e73207765726520676976656e2e00000081525060200191505060405180910390fd5b6104a561049e61070d565b838361034f565b5050565b6104b1610736565b610523576040517f08c379a00000000000000000000000000000000000000000000000000000000081526004018080602001828103825260208152602001807f4f776e61626c653a2063616c6c6572206973206e6f7420746865206f776e657281525060200191505060405180910390fd5b600073ffffffffffffffffffffffffffffffffffffffff166000809054906101000a900473ffffffffffffffffffffffffffffffffffffffff1673ffffffffffffffffffffffffffffffffffffffff167f8be0079c531659141344cd1fd0a4f28419497f9722a3daafe3b4186f6b6457e060405160405180910390a360008060006101000a81548173ffffffffffffffffffffffffffffffffffffffff021916908373ffffffffffffffffffffffffffffffffffffffff160217905550565b6105ea610736565b61065c576040517f08c379a00000000000000000000000000000000000000000000000000000000081526004018080602001828103825260208152602001807f4f776e61626c653a2063616c6c6572206973206e6f7420746865206f776e657281525060200191505060405180910390fd5b6064600260003373ffffffffffffffffffffffffffffffffffffffff1673ffffffffffffffffffffffffffffffffffffffff16815260200190815260200160002054146106f4576040517f08c379a0000000000000000000000000000000000000000000000000000000008152600401808060200182810382526021815260200180610a8a6021913960400191505060405180910390fd5b3373ffffffffffffffffffffffffffffffffffffffff16ff5b60008060009054906101000a900473ffffffffffffffffffffffffffffffffffffffff16905090565b60008060009054906101000a900473ffffffffffffffffffffffffffffffffffffffff1673ffffffffffffffffffffffffffffffffffffffff16610778610917565b73ffffffffffffffffffffffffffffffffffffffff1614905090565b61079c610736565b61080e576040517f08c379a00000000000000000000000000000000000000000000000000000000081526004018080602001828103825260208152602001807f4f776e61626c653a2063616c6c6572206973206e6f7420746865206f776e657281525060200191505060405180910390fd5b80600260008473ffffffffffffffffffffffffffffffffffffffff1673ffffffffffffffffffffffffffffffffffffffff16815260200190815260200160002054101561085a57600080fd5b61086582338361034f565b5050565b60015481565b610877610736565b6108e9576040517f08c379a00000000000000000000000000000000000000000000000000000000081526004018080602001828103825260208152602001807f4f776e61626c653a2063616c6c6572206973206e6f7420746865206f776e657281525060200191505060405180910390fd5b6108f28161091f565b50565b6000806702c68af0bb14000083662386f26fc100000201905080915050919050565b600033905090565b600073ffffffffffffffffffffffffffffffffffffffff168173ffffffffffffffffffffffffffffffffffffffff1614156109a5576040517f08c379a0000000000000000000000000000000000000000000000000000000008152600401808060200182810382526026815260200180610a646026913960400191505060405180910390fd5b8073ffffffffffffffffffffffffffffffffffffffff166000809054906101000a900473ffffffffffffffffffffffffffffffffffffffff1673ffffffffffffffffffffffffffffffffffffffff167f8be0079c531659141344cd1fd0a4f28419497f9722a3daafe3b4186f6b6457e060405160405180910390a3806000806101000a81548173ffffffffffffffffffffffffffffffffffffffff021916908373ffffffffffffffffffffffffffffffffffffffff1602179055505056fe4f776e61626c653a206e6577206f776e657220697320746865207a65726f2061646472657373416c6c20746f6b656e7320646f206e6f742062656c6f6e6720746f206f776e6572a265627a7a7231582041a3ae93be0d73034416279d7ceae8da058d4e7c9ca084d11c5c2a3c5ad798fc64736f6c63430005100032",
  "source": "pragma solidity ^0.5.0;\n\nimport \"openzeppelin-solidity/contracts/ownership/Ownable.sol\";\nimport \"./CoShoe.sol\";\n\ncontract CoToken is Ownable {\n    \n    // current token supply\n    uint public TotalSupply = 100;\n// mapping of balances\n    mapping (address => uint) public balances;\n\n        constructor() public { \n        balances[msg.sender] = TotalSupply;\n\n    }\n    // functiion transfer tokens between accounts\n    function transferFrom(address _from, address _to, uint numberOfTokens) public {\n        // transfer recipent can only recieve money if there are tokens in balance of sender\n        //require(balances[_from] >= _nCo);\n        balances[_from] -= numberOfTokens;\n        balances[_to] += numberOfTokens;\n        TotalSupply -= numberOfTokens;\n    } \n    \n    // \n    //function to calculate price of purchase given\n    //bonding curve where f(x) = 0.01x + 0.2\n    // create constructor with name of owner\n\n    function buyPrice (uint _nCo) internal pure returns(uint) {\n        //bonding curve function\n        //price = f(x)\n        // price in ether\n        \n       uint price = (0.01 * 1e18 wei * _nCo) + (0.2 * 1e18 wei);\n        \n        return price ;\n    }\n    // function to calculate price for sale of nco tokens\n    function sellPrice(uint _nCo) internal pure returns(uint) {\n       \n    uint price = (0.01 * 1e18 wei * _nCo) + (0.2 * 1e18 wei);\n\n        return price ;\n    }\n    \n    // implement mint funtion which will create tokens\n    // requires correct current price to be transferred\n    function mint(address _to, uint numberOfTokens) public payable {\n        // use erc20 mint function\n        //number of tokens bought use buy price function and work backwards\n        \n\n        require(msg.value == buyPrice(numberOfTokens), \"Not enough tokens were given.\");\n        // call TransferFrom function to mint tokens to account\n        transferFrom(owner(), _to, numberOfTokens);\n        \n    }\n\n    \n    //function ehich will sell tokens back to curve \n    // can only be called by ownership\n    function burn(address _from, uint _nCo) public onlyOwner {  \n        //add tokens to balance of owner\n        require(balances[_from]>= _nCo);\n        transferFrom(_from, msg.sender, _nCo);\n     \n    }\n    \n    // destroy function which  destrucs contrac\n    // requires owner to be called\n    // only called if all Cotokens belong to owner\n    function destroy() onlyOwner external {\n        //uint ownerBalance = balances[msg.sender];\n\n        require(balances[msg.sender] == 100, \"All tokens do not belong to owner\");\n        selfdestruct(msg.sender);\n    }\n    \n    \n}",
  "sourcePath": "/Users/zanelekubheka/Fintech/coInteract/contracts/CoToken.sol",
  "compiler": {
    "name": "solc",
    "version": "0.5.16+commit.9c3226ce.Emscripten.clang"
  },
  "schemaVersion": "3.0.23",
  "updatedAt": "2020-03-07T10:18:14.466Z",
  "devdoc": {
    "methods": {
      "isOwner()": {
        "details": "Returns true if the caller is the current owner."
      },
      "owner()": {
        "details": "Returns the address of the current owner."
      },
      "renounceOwnership()": {
        "details": "Leaves the contract without owner. It will not be possible to call `onlyOwner` functions anymore. Can only be called by the current owner.     * NOTE: Renouncing ownership will leave the contract without an owner, thereby removing any functionality that is only available to the owner."
      },
      "transferOwnership(address)": {
        "details": "Transfers ownership of the contract to a new account (`newOwner`). Can only be called by the current owner."
      }
    }
  },
  "userdoc": {
    "methods": {}
  }
}